:100000000C94F5180C9426190C9426190C942619A6
:100010000C9426190C9426190C9426190C94261964
:100020000C9426190C9426190C9426190C94261954
:100030000C9426190C9426190C9426190C94261944
:100040000C9426190C941EA00C9426190C942619B5
:100050000C9426190C9426190C9472B40C9424FD5B
:100060000C9426190C94612F0C9426190C942619C3
:100070000C9426190C9426190C9426190C94261904
:100080000C9426190C9426190C9426190C942619F4
:100090000C9426190C9426190C9426190C9416F617
:1000A0000C9426190C9426190C9426190C942619D4
:1000B0000C9426190C9426190C9426190C942619C4
:1000C0000C9426190C9426190C9426190C942619B4
:1000D0000C9426190C9426190C9426190C942619A4
:1000E0000C942619EEB4FEB41DB52DB548B558B51F
:1000F00073B578B57BB580B583B588B592B547FE45
:100100004CFE51FE5BFE65FEDEFE6FFE77FE7FFE5F
:1001100089FE93FE9DFEACFEB6FEDEFEC0FECAFE6C
:10012000D4FEFFFE02FFF1FEF5FEFBFE39FF06FFE7
:100130000AFF10FF14FF18FF1EFF22FF26FF39FFE2
:100140002CFF30FF34FF084AD73B3BCE016E84BC06
:10015000BFFDC12F3D6C74319ABD56833DDA3D0021
:10016000C77F11BED9E4BB4C3E916BAAAABE00006A
:1001700000803F05A84CCDB2D44EB93836A9020C48
:1001800050B9918688083CA6AAAA2ABE0000008021
:100190003F004D383420582059205A2045004361F3
:1001A0006E6E6F7420656E7465722073756264691B
:1001B000723A20004D3234004D32332025730061F5
:1001C00075746F25692E67006572726F7220777281
:1001D0006974696E6720746F2066696C65004E6F84
:1001E00074205344207072696E74696E67005344C2
:1001F000207072696E74696E672062797465200080
:1002000044656C6574696F6E206661696C65642C09
:100210002046696C653A200046696C652064656C0F
:10022000657465643A006F70656E206661696C651F
:10023000642C2046696C653A200057726974696EB7
:100240006720746F2066696C653A20002E0A006F83
:1002500070656E206661696C65642C2046696C650A
:100260003A20002E0A006F70656E206661696C6529
:10027000642C2046696C653A200046696C652073E1
:10028000656C6563746564002053697A653A200083
:1002900046696C65206F70656E65643A20006F700A
:1002A000656E206661696C65642C2046696C653AF0
:1002B00020004E6F772066726573682066696C65F2
:1002C0003A20004E6F7720646F696E672066696C14
:1002D000653A20002220706F7300222070617265E1
:1002E0006E743A2200535542524F5554494E4520A0
:1002F00043414C4C207461726765743A22004B494B
:100300004C4C45442E2000747279696E6720746FDE
:100310002063616C6C207375622D67636F64652068
:1003200066696C6573207769746820746F6F206DDF
:10033000616E79206C6576656C732E204D41582076
:100340006C6576656C2069733A0053442063617272
:1003500064206F6B006F70656E526F6F7420666102
:10036000696C656400766F6C756D652E696E697475
:10037000206661696C656400534420696E6974206D
:100380006661696C0020204D383531205A005A2DA5
:1003900050726F6265204F666673657420286D6DBC
:1003A000293A0020204D3230302044300020204DAA
:1003B0003230302044002044697361626C6564000F
:1003C00046696C616D656E742073657474696E67DF
:1003D000733A00204C0020430020440020490020B4
:1003E000204D3330312050005049442073657474DF
:1003F000696E67733A0020460020420020204D318C
:100400003435204D31204800204600204200202075
:100410004D313435204D302048004D61746572698E
:10042000616C2068656174757020706172616D65C2
:10043000746572733A00205A0020590020204D3212
:100440003036205800486F6D65206F66667365749E
:1004500020286D6D293A00204500205A00205800C0
:1004600020420020540020204D32303520530041DE
:100470006476616E636564207661726961626C6541
:10048000733A20533D4D696E2066656564726174F0
:100490006520286D6D2F73292C20543D4D696E20E9
:1004A00074726176656C206665656472617465203E
:1004B000286D6D2F73292C20423D6D696E696D7515
:1004C0006D207365676D656E742074696D65202895
:1004D0006D73292C20583D6D6178696D756D2058BC
:1004E00059206A65726B20286D6D2F73292C20208E
:1004F0005A3D6D6178696D756D205A206A65726B21
:1005000020286D6D2F73292C2020453D6D61786961
:100510006D756D2045206A65726B20286D6D2F7397
:10052000290020540020520020204D323034205029
:1005300000416363656C65726174696F6E733A2024
:10054000503D7072696E74696E672C20523D726501
:10055000747261637420616E6420543D74726176BC
:10056000656C00204500205A0020590020204D32A3
:1005700030312058004D6178696D756D204163639D
:10058000656C65726174696F6E20286D6D2F7332B2
:10059000293A00204500205A0020590020204D32E1
:1005A00030332058004D6178696D756D2066656542
:1005B00064726174657320286D6D2F73293A002071
:1005C0004500205A0020590020204D393220580083
:1005D00053746570732070657220756E69743A008B
:1005E00048617264636F6465642044656661756C1C
:1005F000742053657474696E6773204C6F61646511
:10060000640020627974657329002073746F7265C9
:10061000642073657474696E67732072657472699F
:10062000657665642028002062797465732900531B
:10063000657474696E67732053746F7265642028E3
:10064000004572726F722077726974696E672074E8
:100650006F20454550524F4D210020496E76616C08
:1006600069642065787472756465722000507269DF
:100670006E7465722068616C7465642E206B696CA1
:100680006C28292063616C6C656421004B494C4CDB
:1006900045442E20004B494C4C45442E20002074EC
:1006A0006F6F206C6F6E6720657874727573696FF9
:1006B0006E2070726576656E7465640020636F6C81
:1006C0006420657874727573696F6E2070726576D8
:1006D000656E746564006F6B00526573656E643A95
:1006E00020003A20007A5F6D61783A20007A5F6DD1
:1006F000696E3A20006F6B005A204F66667365740E
:10070000004D333030205336353920503230300AE6
:100710004D33303020533639382050323030004F8E
:100720006666736574206170706C6965642E004D37
:100730003330302053343020503230300045727224
:100740003A20546F6F206661722100546F6F2066EB
:1007500061722066726F6D207265666572656E6388
:100760006520706F696E740053657474696E6720DC
:1007700054726176656C20416363656C6572617467
:10078000696F6E3A200053657474696E6720526514
:10079000747261637420416363656C65726174692E
:1007A0006F6E3A200053657474696E6720507269E9
:1007B0006E7420416363656C65726174696F6E3A33
:1007C000200053657474696E67205072696E7420DE
:1007D000616E642054726176656C20416363656C60
:1007E00065726174696F6E3A20004D313435205363
:1007F0003C696E6465783E206F7574206F66207268
:10080000616E67652028302D3129007A5F6D696E31
:100810003A2000795F6D696E3A2000785F6D696EED
:100820003A2000205A3A0020593A0020436F756E52
:100830007420583A200020453A00205A3A002059A6
:100840003A00583A004649524D574152455F4E4191
:100850004D453A4D61726C696E20312E312E302D2E
:10086000524333204D6F64696669656420666F7218
:1008700020426967426F782050726F20534F555263
:1008800043455F434F44455F55524C3A687474701A
:100890003A2F2F77696B692E6533642D6F6E6C6903
:1008A0006E652E636F6D2F77696B692F42696742A2
:1008B0006F782F2050524F544F434F4C5F56455244
:1008C00053494F4E3A312E30204D414348494E4511
:1008D0005F545950453A426967426F782050726FB1
:1008E0002045585452554445525F434F554E543A53
:1008F0003120555549443A30303030303030302D89
:10090000303030302D303030302D303030302D30F0
:1009100030303030303030303030300A00426967AB
:10092000426F782050726F204F66662E00426967D2
:10093000426F782050726F2072656164792E004298
:10094000656420646F6E652E0020423A0020453AAF
:1009500000543A004265642048656174696E672EF0
:100960000048656174696E6720646F6E652E003F94
:100970000020573A0020453A00543A004865617417
:10098000696E672E2E2E002042403A0020403A0029
:10099000202F00205400202F0020423A00202F005A
:1009A00020543A006F6B004B494C4C45442E2000BC
:1009B00044454255472044525952554E20454E41D8
:1009C000424C4544004445425547204543484F204A
:1009D000454E41424C4544005374616E64617264FB
:1009E00020446576696174696F6E3A20004D6561D7
:1009F0006E3A20002020207369676D613A20002044
:100A00006D65616E3A20002020207A3A2000206F28
:100A1000662000793A2000783A2000506F7369749C
:100A2000696F6E696E67207468652070726F6265A9
:100A30002E2E2E0A003F4E756D626572206F662065
:100A40006C65677320696E206D6F76656D656E7479
:100A5000206E6F7420706C61757369626C652028FC
:100A6000302D3135292E0A00590058003F53616D51
:100A7000706C652073697A65206E6F7420706C618C
:100A8000757369626C652028342D3530292E0A0073
:100A90004D3438205A2D50726F6265205265706552
:100AA00061746162696C69747920746573740A0099
:100AB0003F566572626F7365204C6576656C206E7B
:100AC0006F7420706C61757369626C652028302DBD
:100AD00034292E0A002569206D696E2C2025692095
:100AE00073656300456E642066696C65206C69738C
:100AF0007400426567696E2066696C65206C697375
:100B000074004E6F206D6F76652E00426967426FEC
:100B1000782050726F2072656164792E005265737F
:100B2000756D696E67207072696E740057616974C3
:100B300020666F7220757365722E2E2E00205A3A31
:100B4000200020593A200042656420583A200020B5
:100B50005A3A200020593A200042656420583A2031
:100B600000202B00200A436F727265637465642055
:100B7000426564204865696768742076732E204258
:100B8000656420546F706F6C6F67793A200A00209B
:100B90002B002B2D2D2D2D2D2D2D2D2D2D2D2B0ADB
:100BA000007C2E2E2E46726F6E742E2E2E7C0A0026
:100BB0007C4C6566742E2E52696768747C0A007CD2
:100BC0002E2E2E4261636B2E2E2E2E7C0A002B2D94
:100BD0002D2D2D2D2D2D2D2D2D2D2B0A00200A42B2
:100BE00065642048656967687420546F706F677228
:100BF000617068793A200A004D65616E206F662049
:100C000073616D706C656420706F696E74733A20E7
:100C10000020643A200020623A200045716E206373
:100C20006F656666696369656E74733A20613A2020
:100C30000028422961636B00284629726F6E740098
:100C40002852296967687400284C29656674003F3A
:100C50004E756D626572206F662070726F6265649A
:100C6000202850296F696E747320697320696D7034
:100C70006C61757369626C65202832206D696E69DC
:100C80006D756D292E0A0052756E6E696E6720694A
:100C90006E204452592D52554E206D6F64650047A9
:100CA0003239204175746F20426564204C65766549
:100CB0006C696E670A003F2856296572626F73651A
:100CC000204C6576656C20697320696D706C617568
:100CD0007369626C652028302D34292E00486F6DB1
:100CE0006520582F59206265666F7265205A00484A
:100CF0006F6D6520582F59206265666F7265205AA6
:100D0000005761726E696E673A20486F6D696E6751
:100D10002042756D702044697669736F72203C20A3
:100D20003100486F6D6520582F59206265666F72DB
:100D300065205A00486F6D6520582F5920626566FE
:100D40006F7265205A005A2070726F6265206F754D
:100D5000742E20626564005A2070726F6265206F85
:100D600075742E2062656400536C6565702E2E2E9E
:100D70000020706F736974696F6E206F7574206FD7
:100D8000662072616E67652E003F50726F6265204B
:100D900000220A00556E6B6E6F776E20636F6D6D6B
:100DA000616E643A202200256920686F7572732095
:100DB0002569206D696E7574657300446F6E6520DA
:100DC0007072696E74696E672066696C65004B4964
:100DD0004C4C45442E200053544F505045442E2037
:100DE000005072696E7465722073746F7070656400
:100DF0002064756520746F206572726F72732E2087
:100E000046697820746865206572726F7220616E21
:100E10006420757365204D39393920746F207265EF
:100E200073746172742E202854656D7065726174DC
:100E30007572652069732072657365742E20536521
:100E400074206974206166746572207265737461C0
:100E50007274696E6729004E6F204C696E65204E72
:100E6000756D626572207769746820636865636B6D
:100E700073756D2C204C617374204C696E653A203B
:100E8000004E6F20436865636B73756D20776974DE
:100E900068206C696E65206E756D6265722C204CE1
:100EA000617374204C696E653A2000636865636BFA
:100EB00073756D206D69736D617463682C204C616E
:100EC0007374204C696E653A20004C696E65204E43
:100ED000756D626572206973206E6F74204C61734A
:100EE00074204C696E65204E756D6265722B312CD5
:100EF000204C617374204C696E653A20004D31318D
:100F000030006F6B00446F6E6520736176696E67A9
:100F10002066696C652E004D3239002020506C61CE
:100F20006E6E657242756666657242797465733A73
:100F300020002046726565204D656D6F72793A20FC
:100F400000446563203135203230313500436F6D08
:100F500070696C65643A2000286E6F6E652C2064A1
:100F6000656661756C7420636F6E66696729002021
:100F70007C20417574686F723A2000323031352D13
:100F800031322D31352030303A303000204C617311
:100F90007420557064617465643A200020312E31EC
:100FA0002E302D5243332028424250726F29004D7B
:100FB00061726C696E0020536F6674776172652090
:100FC000526573657400205761746368646F6720AD
:100FD0005265736574002042726F776E206F75746E
:100FE000205265736574002045787465726E616C7B
:100FF00020526573657400506F7765725570007389
:1010000074617274002200656E7175657565696E34
:1010100067202200FFFFFF0000A0400000A040006A
:10102000000040000096430000704300008C430025
:1010300000000000000000000000000000964300D7
:1010400000704300008C430000000000000000001E
:101050000000006563686F3A004572726F723A0073
:1010600020746F6F206C6F6E672065787472757373
:10107000696F6E2070726576656E746564002063BA
:101080006F6C6420657874727573696F6E2070720E
:101090006576656E746564007C3C3E5E2B3D3F2F3B
:1010A0005B5D3B2C2A225C004D38342058205920AF
:1010B0005A204500656E6473746F7073206869749C
:1010C0003A205A00205A3A00656E6473746F707348
:1010D000206869743A20590020593A00656E64739B
:1010E000746F7073206869743A20580020583A0071
:1010F000656E6473746F7073206869743A2000249D
:10110000F4D43050C38E20C2A24017828B701112CB
:101110007A910D816CD90AA861E108C75866076108
:101120005143061E4B5D05C145A7041A4111040930
:101130003D9803713931034036DB0265339102D4A7
:10114000305402802E1D02632CEE01752AC501B0B9
:1011500028A001102781018F2564012B244B01E079
:10116000223401AC211F018D200D01801FFC008461
:101170001EED00971DDF00B81CD200E61BC6002044
:101180001BBC00641AB200B219A8000A19A0006AB8
:10119000189900D117910040178B00B516840031C3
:1011A000167E00B31579003A157300C7146F005806
:1011B000146A00EE1366008813630025135E00C7EF
:1011C000125B006C12570015125400C111510070CF
:1011D000114F0021114B00D61049008D10470046D9
:1011E00010440002104200C00F4000800F3E004239
:1011F0000F3C00060F3B00CB0E3800930E37005C0F
:101200000E3500270E3400F30D3200C10D31009071
:101210000D3000600D2E00320D2D00050D2C00D973
:101220000C2B00AE0C2900850C29005C0C27003526
:101230000C27000E0C2600E80B2400C40B2400A091
:101240000B23007D0B23005A0B2100390B210018C2
:101250000B2000F80A1F00D90A1E00BB0A1E009DC1
:101260000A1D00800A1D00630A1C00470A1B002C8F
:101270000A1B00110A1A00F7091A00DD091900C437
:10128000091900AB091900920917007B09180063BE
:101290000917004C09160036091600200916000A25
:1012A000091500F5081500E0081400CC081400B872
:1012B000081400A4081400900813007D0812006BA5
:1012C00008130058081200460812003408110023C1
:1012D0000811001208110001081100F0071000E0C9
:1012E000071000D0071000C0071000B0070F00A1C2
:1012F00007100091070E0083070F0074070F0065A9
:10130000070E0057070E0049070E003B070D002E81
:10131000070E0020070D0013070D0006070D00F94A
:10132000060C00ED060D00E0060C00D4060C00C80B
:10133000060C00BC060C00B0060C00A4060B0099BD
:10134000060C008D060B0082060B0077060B006C66
:10135000060B0061060A0057060B004C060A004205
:10136000060A0038060A002E060A0024060A001A99
:10137000060A001006090007060A00FD050900F428
:10138000050900EB050900E2050900D9050900D0AF
:10139000050900C7050900BE050900B5050800AD2F
:1013A000050800A50509009C050800940508008CA7
:1013B000050800840508007C050800740508006C19
:1013C000050700650508005D050700560508004E85
:1013D00005070047050700400508003805070031EC
:1013E0000507002A050700230507001C050600164F
:1013F0000507000F0507000805060002050700FBAA
:10140000040600F5040700EE040600E8040600E206
:10141000040700DB040600D5040600CF040600C95B
:10142000040600C3040600BD040600B7040600B1AC
:10143000040500AC040600A6040600A00405009BF9
:1014400004060095040500900406008A0405008542
:10145000040500800406007A040500750405007088
:101460000405006B04050066040500610405005CCA
:1014700004050057040500520405004D040500480A
:10148000040500430405003E0404003A0405003549
:10149000040500300404002C040500270404002384
:1014A0000405001E0404001A0404001604050011BB
:1014B0000404000D040400090405000404040000F1
:1014C000040400FC030400F8030400F4030400F027
:1014D000030400EC030400E8030400E4030400E058
:1014E000030400DC030400D8030400D4030400D088
:1014F000030400CC030400C8030300C50303002455
:10150000F404D9201BC40C5C0E9804C4095F026566
:10151000077101F405F900FB04B30048048700C11A
:101520000369005803550003034500BE023A0084D6
:1015300002310053022A002902250004022000E49F
:10154000011C00C8011900AF0117009801140084A4
:10155000011300710110006101100051010E0043E0
:10156000010D0036010B002B010B0020010B0015B3
:101570000109000C01090003010800FB000800F349
:10158000000800EB000700E4000600DE000600D8BB
:10159000000600D2000600CC000500C7000500C20E
:1015A000000500BD000400B9000400B5000400B14E
:1015B000000400AD000400A9000400A5000300A27F
:1015C0000003009F0004009B0003009800030095A7
:1015D00000020093000300900003008D0002008BC6
:1015E00000030088000200860002008400030081DE
:1015F0000002007F0002007D0002007B00020079F3
:101600000002007700010076000200740002007200
:10161000000100710002006F0002006D0001006C0B
:101620000002006A00010069000200670001006614
:101630000001006500010064000200620001006119
:10164000000100600001005F0002005D0001005C1D
:101650000001005B0001005A000100590001005820
:101660000001005700010056000100550001005420
:10167000000100530000005300010052000100511E
:10168000000100500001004F0001004E0000004E1C
:101690000001004D0001004C0001004B0000004B18
:1016A0000001004A00010049000100480000004814
:1016B000000100470001004600000046000100450F
:1016C0000000004500010044000100430000004309
:1016D0000001004200000042000100410000004102
:1016E000000100400001003F0000003F0001003EFB
:1016F0000000003E0001003D0000003D0001003CF4
:101700000000003C0000003C0001003B0000003BEA
:101710000001003A0000003A0001003900000039E1
:1017200000010038000000380000003800010037D8
:1017300000000037000100360000003600000036CF
:1017400000010035000000350000003500010034C4
:1017500000000034000000340001003300000033BA
:1017600000000033000100320000003200000032AF
:1017700000010031000000310000003100010030A4
:1017800000000030000000300001002F0000002F9A
:101790000000002F0000002F0001002E0000002E8E
:1017A0000000002E0001002D0000002D0000002D83
:1017B0000000002D0001002C0000002C0000002C77
:1017C0000000002C0001002B0000002B0000002B6B
:1017D0000000002B0001002A0000002A0000002A5F
:1017E0000000002A00010029000000290000002953
:1017F0000000002900000029000100280000002846
:101800000000002800000028000000280001002738
:10181000000000270000002700000027000000272C
:10182000000100260000002600000026000000261F
:101830000000002600010025000000250000002512
:101840000000002500000025000000250001002404
:1018500000000024000000240000002400000024F8
:1018600000010023000000230000002300000023EB
:1018700000000023000000230000002300010022DC
:1018800000000022000000220000002200000022D0
:1018900000000022000100210000002100000021C2
:1018A00000000021000000210000002100000021B4
:1018B00000010020000000200000002000000020A7
:1018C0000000002000000020000000200000002098
:1018D0000001001F0000001F0000001F0000001F8B
:1018E0000000001F0000001F0000001F0001001E7C
:1018F0000000001E0000001E0000001E0000004D41
:10190000494E54454D50207472696767657265642D
:10191000004572723A204D494E54454D5020424583
:1019200044004D415854454D5020747269676765B5
:10193000726564004572723A204D415854454D50CD
:101940002042454400546865726D616C2052756E8A
:101950006177617900544845524D414C2052554EB3
:10196000415741590048656174696E672066616935
:101970006C65640048656174696E67206661696CB6
:101980006564004D494E54454D5020747269676737
:1019900065726564004572723A204D494E54454D5A
:1019A0005000626564002C2073797374656D207338
:1019B000746F7070656421204865617465725F4959
:1019C000443A20004D415854454D50207472696787
:1019D0006765726564004572723A204D41585445FE
:1019E0004D50004B64200023646566696E652020BD
:1019F00044454641554C545F004B692000236465C3
:101A000066696E65202044454641554C545F004B45
:101A100070200023646566696E6520204445464158
:101A2000554C545F00504944204175746F74756E75
:101A3000652066696E69736865642120507574203D
:101A4000746865206C617374204B702C204B692086
:101A5000616E64204B6420636F6E7374616E747387
:101A60002066726F6D2062656C6F7720696E746F8F
:101A700020436F6E66696775726174696F6E2E6858
:101A800000504944204175746F74756E652066611D
:101A9000696C6564212074696D656F757400204000
:101AA0003A00543A00423A00504944204175746F5C
:101AB00074756E65206661696C6564212054656D7E
:101AC000706572617475726520746F6F20686967E4
:101AD0006800204B643A2000204B693A2000204BDC
:101AE000703A200020436C6173736963205049444D
:101AF00020002054753A2000204B753A2000206DBC
:101B000061783A2000206D696E3A200020643A2006
:101B10000020626961733A200000000000300E016D
:101B200000C00E0A00500F1400D00F1E00601028D5
:101B300000E010320070113C00F0114600701250AD
:101B40000000135A008013640000146E0090147893
:101B5000001015820090158C00101696009016A0AB
:101B6000001017AA009017B4001018BE009018C8F3
:101B7000001019D2009019DC00101AE600801AF04B
:101B800000001BFA00801B0401F01B0E01701C18E2
:101B900001F01C2201601D2C01E01D3601501E4089
:101BA00001D01E4A01401F5401B01F5E0130206861
:101BB00001A020720110217C019021860100229059
:101BC000016026F401902A5802802EBC0250322077
:101BD00003E03584035039E803803C4C041000C90D
:101BE0000210012C014001220170011801B0010E08
:101BF00001F00104015002FA00B002F0003003E6E7
:101C000000D003DC009004D2007005C800A006BE1E
:101C1000000008B400B009AA00D00BA000600E9626
:101C20000060118C000015820020197800C01D6E24
:101C300000A0226400B0275A00902C5000003146CA
:101C400000E0343C0010383200903A2800603C1E1E
:101C500000A03D1400803E0A00203F000043617256
:101C6000642072656D6F76656400436172642069FB
:101C70006E736572746564004D343238000920005B
:101C80000920002D2D2D2E2D2D002D2D2D002D2D3B
:101C90002D002D2D2D002D2D3A2D2D00466C6F770A
:101CA00000466C6F7700537065656400537065651E
:101CB00064004D61696E004D6F76652058004D6F70
:101CC00076652059004D6F7665205A00457874720C
:101CD00075646572004578747275646572004D6F45
:101CE0007665205A004D6F76652059004D6F7665F8
:101CF0002058004D6F76652061786973004D6F76CE
:101D00006520302E316D6D004D6F766520316D6D23
:101D1000004D6F76652031306D6D005072657061D9
:101D20007265005072656865617420504C412042B4
:101D30006564005072656865617420504C410050C4
:101D400072657061726500507265686561742041EA
:101D50004253204265640050726568656174204199
:101D600042530050726570617265004D3830005307
:101D7000776974636820706F776572206F6E004DAD
:101D800038310053776974636820706F776572200B
:101D90006F666600436F6F6C646F776E005072659C
:101DA00068656174204142530050726568656174D2
:101DB00020504C41004D38340044697361626C65B9
:101DC000207374657070657273004D6F7665206165
:101DD00078697300473239004C6576656C2062651E
:101DE000640053657420686F6D65206F6666736567
:101DF000747300473238004175746F20686F6D65E9
:101E0000004D61696E0046616E2073706565640007
:101E100046616E20737065656400426564004265CA
:101E200064004E6F7A7A6C65004E6F7A7A6C65004A
:101E300053746F7265206D656D6F727900426564D1
:101E400000426564004E6F7A7A6C65004E6F7A7A54
:101E50006C650046616E2073706565640046616E56
:101E60002073706565640054656D7065726174758A
:101E700072650053746F7265206D656D6F727900C5
:101E800042656400426564004E6F7A7A6C65004E6C
:101E90006F7A7A6C650046616E20737065656400C8
:101EA00046616E2073706565640054656D7065727F
:101EB0006174757265005072656865617420414295
:101EC0005320636F6E6600507265686561742050C0
:101ED0004C4120636F6E66005049442D43005049C9
:101EE000442D43005049442D44005049442D4400A2
:101EF0005049442D49005049442D49005049442D32
:101F000050005049442D5000200820466163740061
:101F100020082046616374002008204D617800206D
:101F200008204D6178002008204D696E00200820AF
:101F30004D696E004175746F74656D70004F666613
:101F4000004F6E2000436F6E74726F6C00457374A7
:101F50006570732F6D6D004573746570732F6D6DB3
:101F6000005A73746570732F6D6D005A73746570C9
:101F7000732F6D6D005973746570732F6D6D0059FB
:101F800073746570732F6D6D005873746570732F63
:101F90006D6D005873746570732F6D6D00412D74F5
:101FA000726176656C00412D74726176656C0041DA
:101FB0002D7265747261637400412D726574726173
:101FC000637400416D6178206500416D6178206522
:101FD00000416D6178207A00416D6178207A00417E
:101FE0006D6178207900416D6178207900416D61E3
:101FF00078207800416D61782078005654726176BF
:10200000206D696E005654726176206D696E0056BF
:102010006D696E00566D696E00566D6178206500C1
:10202000566D6178206500566D6178207A00566D96
:102030006178207A00566D6178207900566D61785C
:10204000207900566D6178207800566D617820788F
:102050000056652D6A65726B0056652D6A65726B58
:1020600000567A2D6A65726B00567A2D6A65726B1E
:10207000005678792D6A65726B005678792D6A65FD
:10208000726B00416363656C00416363656C005A69
:10209000204F6666736574005A204F6666736574D8
:1020A00000436F6E74726F6C0046696C2E20446939
:1020B000612E0046696C2E204469612E004520691E
:1020C0006E206D6D33004F6666004F6E2000436FCB
:1020D0006E74726F6C00526573746F726520666106
:1020E000696C73616665004C6F6164206D656D6F2E
:1020F00072790053746F7265206D656D6F7279002F
:1021000046696C616D656E74004D6F74696F6E0029
:1021100054656D7065726174757265004D61696EAC
:10212000004D3234004D323320257300022E2E0034
:102130004D61696E004E6F205344206361726400EC
:102140005072696E742066726F6D20534400537430
:102150006F70207072696E7400526573756D6520C2
:102160007072696E74005061757365207072696E6B
:102170007400436F6E74726F6C00507265706172A0
:10218000650054756E6500496E666F2073637265F5
:10219000656E0000060900FE070192032120FFFF83
:1021A00008FF07FF00000006000001070706020005
:1021B00080808080800080030202060105A0A005C7
:1021C00007070600005050F850F850500507070662
:1021D00000002078A07028F020050707060000C046
:1021E000C810204098180507070600006090A0401E
:1021F000A89068020303060104C040800307070695
:1022000001002040808080402003070706010080F5
:1022100040202020408005050506000120A870A868
:10222000200505050600012020F8202002030306F2
:1022300002FFC04080050101060003F80202020609
:102240000200C0C0050505060001081020408005F9
:1022500007070600007088888888887003070706CB
:10226000010040C040404040E00507070600007004
:102270008808708080F8050707060000F810201015
:102280000808F005070706000010305090F81010FD
:10229000050707060000F880F008088870050707A2
:1022A000060000708080F08888700507070600002F
:1022B000F8081020202020050707060000708888F5
:1022C00070888870050707060000708888780808FD
:1022D00070020505060200C0C000C0C00206060666
:1022E00002FFC0C000C040800407070600001020A5
:1022F0004080402010050303060002F800F80407A0
:1023000007060100804020102040800507070600D6
:10231000007088081020002005070706000070885C
:102320000868A8A870050707060000708888F88864
:102330008888050707060000F08888F08888F0057F
:1023400007070600007088808080887005070706F0
:102350000000F08888888888F0050707060000F8E4
:102360008080F08080F8050707060000F88080F084
:10237000808080050707060000708880B888887014
:10238000050707060000888888F8888888010707FD
:10239000060200808080808080800507070600009C
:1023A000381010101090600507070600008890A0F4
:1023B000C0A090880507070600008080808080808C
:1023C000F805070706000088D8A8888888880507C8
:1023D000070600008888C8A89888880507070600AF
:1023E0000070888888888870050707060000F088D4
:1023F00088F080808005070706000070888888A81C
:102400009068050707060000F08888F0A09088050E
:102410000707060000788080700808F005070706A7
:102420000000F82020202020200507070600008853
:10243000888888888870050707060000888888884B
:102440008850200507070600008888888888A850DB
:102450000507070600008888502050888805070770
:102460000600008888885020202005070706000005
:10247000F80810204080F8030707060100E080807C
:10248000808080E0050505060001804020100803DB
:102490000707060100E02020202020E005030306B6
:1024A0000004205088050101060000F8020202061F
:1024B000020580400505050600007008788878054B
:1024C00007070600008080B0C88888F0050505066B
:1024D0000000708080887005070706000008086803
:1024E000988888780505050600007088F8807005D2
:1024F00007070600003048E0404040400506060659
:1025000000FF708888780870050707060000808043
:10251000B0C8888888010707060200800080808094
:1025200080800308080601FF200020202020A04012
:10253000040707060000808090A0C0A09003070752
:10254000060100C04040404040E00505050600008F
:10255000D0A8A8A8A8050505060000B0C8888888E6
:1025600005050506000070888888700506060600C7
:10257000FFF08888F080800506060600FF788888CE
:10258000780808050505060000B0C88080800505AC
:102590000506000070807008F00407070600004080
:1025A00040E04040403005050506000088888898D6
:1025B0006805050506000088888850200505050681
:1025C00000008888A8A8500505050600008850204E
:1025D00050880506060600FF88888878087005057B
:1025E00005060000F8102040F80307070601002048
:1025F0004040804040200107070602008080808024
:102600008080800307070601008040402040408012
:1026100005020206000268900000000600000000AB
:102620000006000000000006000000000006000098
:102630000000000600000000000600000000000688
:10264000000000000006000000000006000000007E
:102650000006000000000006000000000006000068
:102660000000000600000000000600000000000658
:10267000000000000006000000000006000000004E
:102680000006000000000006000000000006000038
:102690000000000600000000000600000000000628
:1026A000000000000006000000000006000000001E
:1026B0000006000000000006000000000006000008
:1026C00000000006000000000006000000000006F8
:1026D00000000000000600000000000600000000EE
:1026E000000600000107070602008000808080804D
:1026F000800507070600002070A8A0A87020050725
:1027000007060000304040E04050A80505050600DF
:10271000008870507088050707060000885020F870
:1027200020F820010707060200808080008080805A
:102730000508080600003048205050209060030132
:1027400001060107A0050707060000F888B8B8B819
:1027500088F8050707060001700878887800F805F2
:1027600005050600012850A05028050303060001B6
:10277000F808080202020602064080050707060064
:1027800000F888A88898A8F8050101060006F80452
:10279000040406000360909060050707060000200F
:1027A00020F8202000F80405050600036090204072
:1027B000F0030505060003E020E020E00202020627
:1027C000020640800508080600FF8888888898E887
:1027D0008080050707060000789898781818180276
:1027E0000202060202C0C00202020602FF4080038B
:1027F000050506000340C04040E00507070600014C
:10280000708888887000F8050505060001A050282A
:1028100050A00507070600008890A858B8080805CA
:1028200007070600008890B8489820380508080671
:102830000000C040C048D838080805070706000057
:102840002000204080887005080806000040200015
:102850007088F88888050808060000102000708835
:10286000F888880508080600002050007088F8885D
:10287000880508080600006890007088F8888805B8
:1028800008080600005000708888F8888805080845
:102890000600002050207088F88888050707060089
:1028A000003860A0B8E0A0B80508080600FF7088EE
:1028B000808088702060050808060000402000F82D
:1028C00080F080F8050808060000081000F880F085
:1028D00080F8050808060000205000F880F080F815
:1028E0000507070600005000F880F080F80308088C
:1028F000060100804000E0404040E0030808060177
:1029000000204000E0404040E0030808060100408D
:10291000A000E0404040E0030707060100A000E0FF
:10292000404040E0050707060000704848E8484876
:102930007005080806000068900088C8A8988805F7
:1029400008080600004020708888888870050808FC
:102950000600001020708888888870050808060026
:1029600000205000708888887005080806000068FC
:102970009000708888887005080806000050007074
:1029800088888888700505050600018850205088D1
:102990000508080600FF1070A8A8A8A87040050840
:1029A0000806000040208888888888700508080686
:1029B00000001020888888888870050808060000B4
:1029C000205000888888887005080806000050009C
:1029D00088888888887005080806000010208850BC
:1029E000202020200509090600FFC04070484870DB
:1029F0004040E00408080601FF609090A09090E03D
:102A000080050808060000402000700878887805D6
:102A1000080806000010200070087888780508086B
:102A20000600002050007008788878050808060025
:102A30000068900070087888780507070600005045
:102A4000007008788878050808060000205020707B
:102A500008788878050606060000D02878A0A850D7
:102A60000506060600FF70808870206005080806CD
:102A700000004020007088F88070050808060000FB
:102A80001020007088F880700508080600002050AB
:102A9000007088F8807005070706000050007088F5
:102AA000F8807003080806010080400040C04040E4
:102AB000E003080806010020400040C04040E00359
:102AC000080806010040A00040C04040E00307079E
:102AD000060100A00040C04040E0050707060000D6
:102AE000A040A010788870050808060000689000D3
:102AF000B0C8888888050808060000402000708853
:102B000088887005080806000010200070888888F2
:102B1000700508080600002050007088888870053D
:102B2000080806000068900070888888700507070C
:102B300006000050007088888870050505060001B1
:102B40002000F800200507070600FF1070A8A8A8BD
:102B500070400508080600004020008888889868B2
:102B60000508080600001020008888889868050875
:102B70000806000020500088888898680507070626
:102B80000000500088888898680509090600FF1031
:102B90002000888888F808700407070601FFC040F5
:102BA00060506040E00508080600FF5000888888F3
:102BB00078087000060900FE00000000000109000E
:102BC00008FE000005080806000040F0C888889844
:102BD0007810050808060000C0F88888888888F8FA
:102BE0000505050600012030F8302005080806001C
:102BF000002070F820202020E00509090600FF20B1
:102C000070A8A8B8888870200509090600FFE08030
:102C1000C0B0A8283028280509090600FFF8A888B0
:102C200088888888A8F8050A0A0600FE20505050B7
:102C30005088A8A8887003030306000340A0400042
:102C400000000000000000000000007FFFE0000026
:102C5000000000000000000000007000E000000024
:102C600000000000000000000061F86000000000AB
:102C7000000000000000000041F8200000000000FB
:102C80000000000000000040F020000000000000F4
:102C90000000000000004060200000000000000074
:102CA00000000000005801A07F800000000000002C
:102CB000004104005C63A0FFC000000000000000B1
:102CC0002082005EF7A0FFC000000000000000208E
:102CD00082005EF7A0FFC000000000000000410479
:102CE000005C63A07F8000000000000000820800FC
:102CF0005801A07F80000000000000010410004087
:102D00006020FFC00000000000000104100040F03F
:102D100020FFC00000000000000082080041F820F1
:102D2000FFC00000000000000041040061F8603FA7
:102D300000000000000000000000007000E01E0025
:102D400000000000000001FFFF807FFFE00C00009A
:102D5000000000000001FFFF8000000000000000F4
:102D600000000000000000007FFFE0000000000005
:102D7000000000000000007000E000000000000003
:102D8000000000000000630C600000000000000074
:102D90000000000000470E200000000000000000BE
:102DA000000000004F0F20000000000000000000A5
:102DB0000000005F0FA00000000000000000000005
:102DC00000005E07A07F80000000000000004104BA
:102DD00000406020FFC000000000000000208200D2
:102DE00040F020FFC00000000000000020820040F2
:102DF000F020FFC00000000000000041040040601F
:102E0000207F80000000000000008208005E07A014
:102E10007F80000000000000010410005F0FA0FF91
:102E2000C0000000000000010410004F0F20FFC090
:102E300000000000000000820800470E20FFC000D4
:102E4000000000000000410400630C603F0000002F
:102E500000000000000000007000E01E0000000004
:102E600000000001FFFF807FFFE00C000000000079
:102E7000000001FFFF80000000FFFFFF800FFC0F3C
:102E800081F80FFC00F81E0FFFFFFF800FFF0F837C
:102E9000FE0FFF03FE1E0FFFFFFF800FFF0F87FFD8
:102EA0000FFF07FF1F1FE00003800FFF8F8FFF0F33
:102EB000FF87FF0F1EE00003800F8F8F8F8F8F8F94
:102EC0008F8F8F1EE03E03800F8F8F8F8F8F8F8F9E
:102ED0008F87BCE03E03800F8F8F8F8F8F8F8F8FF8
:102EE00087BCE03E03800F8F8F8F8F8F8F8F8F87F0
:102EF000FCE03E03800FFF8F8F8F8FFF8F8F83F853
:102F0000E03E03800FFF0F8F800FFF0F8F83F8E0ED
:102F10001C03800FFC0F8F800FFC0F8F83F8E008DD
:102F200003800FFF0F8F9F8FFF0F8F83F8E0000349
:102F3000800FFF8F8F9F8FFF8F8F83F8E0000380BC
:102F40000F8F8F8F9F8F8F8F8F87FCE00003800FF5
:102F50008F8F8F8F8F8F8F8F87BCE00003800F8FB5
:102F60008F8F8F8F8F8F8F87BCE00003800F8F8FA5
:102F70008F8F8F8F8F8F873CE00003800F8F8F8F15
:102F80008F8F8F8F8F8F1EE00003800F8F8F8F8F1B
:102F90008F8F8F8F8F1EE00003800FFF8F8FFF8F2B
:102FA000FF87FF0F1EE00003800FFF8F87FF8FFF5B
:102FB00087FF1F1FE00003800FFF0F83FB8FFF03BE
:102FC000FE1E0FE00003800FFE0F81F38FFE00F85E
:102FD0001E0FE00003800000000000000000000061
:102FE00000E000038000000000000000000000007E
:102FF000E00003800000000000000000000000E787
:10300000FFF3800000000000000000000000E7FF68
:10301000F3800000000000000000000000E000035A
:10302000800000000000000000000000E0000380BD
:103030000000000000000000000000E0000380002D
:1030400000000000000000000000FFFFFF80000003
:10305000000000000000000000FFFFFF80000000F3
:103060000000000000000000FFFFFF8000000000E3
:1030700000000000000000207A3A200020793A2069
:103080000020783A200000000A0B02090C0D0E08FF
:103090000703040100000000000000000000000021
:1030A0000000000000000000000000000000000020
:1030B00000001211100000000000000000000000DD
:1030C00000000000000000000000000001021020CD
:1030D000200808102040102040800201020108044E
:1030E00002010102040810204080804020100804E2
:1030F000020180040201804020100804020108043B
:10310000020101020408102040800102040810207E
:1031100040800505050507050808080802020202A7
:103120000A0A080804040404010101010101010163
:103130000303030303030303040707070C0C0C0C2E
:103140000C0C0C0C02020202060606060606060617
:103150000B0B0B0B0B0B0B0B0000200023002600AE
:1031600029002C002F00320000010000030106019D
:10317000090100002200250028002B002E0031004C
:10318000340002010000050108010B0100002100CC
:10319000240027002A002D00300033000101000028
:1031A000040107010A014E414E494E495459494E06
:1031B00046CDCCCC3D0AD7233C17B7D13877CC2BA2
:1031C000329595E6241FB14F0A000020410000C847
:1031D0004200401C4620BCBE4CCA1B0E5AAEC59DC8
:1031E0007400E069AEF0EAF5E46911241FBECFEF88
:1031F000D1E2DEBFCDBF00E00CBF14E0A0E0B2E042
:10320000E0EDF6E102E00BBF02C007900D92AA3A92
:10321000B107D9F726E1AAEAB4E001C01D92A434AF
:10322000B207E1F711E3C8EED1E300E006C0229750
:103230000109FE010BBF0F942205C23ED10780E0B9
:103240000807A9F70E94D1FF0D94570B0C940000BA
:10325000452BC1F020910A01206220930A013FB75B
:10326000F89420910B01206220930B013FBF0E9434
:103270009DFD9FB7F89480910B018F7D80930B018A
:103280009FBF08950C949DFDFC0114821782138248
:10329000128282E094E091838083089522E034E0FA
:1032A000FC01318320832781222319F004960C949A
:1032B0002F950895CF92DF92EF92FF920F931F9375
:1032C000CF93DF93EC018F96DFDFCE01805B9F4FC2
:1032D000DBDF7E012FE6E20EF11C87016E013BE58C
:1032E000C31A3EEFD30AC801CFDF015E1F4F0C1592
:1032F0001D05C9F7FE01E955FE4F89E1818314825E
:103300003596178ACE0186539E4FBEDFFE01E558E3
:10331000FD4F108211821282138238961082118220
:10332000128213821A821B8218821982F80111827A
:103330001082FE01E751FE4F108286E391E0F70113
:103340009C01119221503040E1F7FE01E957FD4FF9
:1033500081E080831EA61DA60E946EFDC158DD4F30
:1033600068577C4E8F4F9F4F688379838A839B83F6
:10337000DF91CF911F910F91FF90EF90DF90CF9051
:103380000895FC0120E03EE2DB014C91403241F027
:10339000283011F430833196DB014C914083319613
:1033A0002F5F6F5F7F4F2B3079F7108208952F9238
:1033B0003F924F925F926F927F928F929F92AF92C5
:1033C000BF92CF92DF92EF92FF920F931F93CF9312
:1033D000DF93CDB7DEB7C657D1090FB6F894DEBF7D
:1033E0000FBECDBF8C016B015A0129012DB73EB72D
:1033F000E3963FAF2EAFE397AD961FAEAD9734E0A7
:10340000A30EB11C4296E5969FAF8EAFE5971801CB
:1034100098E7291A9DEF390AF801E657FD4FAF9654
:10342000FFAFEEAFAF973801F5E06F0E711C7E0174
:103430002FE5E20EF11C80E490E08C0F9D1F0496B6
:10344000E7969FAF8EAFE797E5964EAD5FADE597F8
:10345000BE016F5F7F4FC5010E94959318160CF057
:103460003EC12C85322F3871303109F0BCC0F101DA
:10347000808191810197029708F4B5C02DB73EB7BE
:10348000E1963FAF2EAFE197BE016F5F7F4FC7015F
:1034900078DF81E0F601908191119DC0E1E0F0E0DC
:1034A000D7010D900020E9F7EE19FF09EA0FFB1F85
:1034B00031962DB73EB72E1B3F0B0FB6F8943EBF8B
:1034C0000FBE2DBFEDB7FEB731964F01882319F01F
:1034D00060E173E001C0B601C4010F945808B70160
:1034E000C4010F94390860E173E0C4010F943908F6
:1034F000CE01805C9F4FC8DE21E0A701B501E796B1
:103500008EAD9FADE7970E942697811137C0F101DC
:1035100080819181892B91F5E3E5F0E18491882305
:1035200041F09091C00095FFFCCF8093C60031968A
:10353000F5CFE2E1F3E08191882339F09091C0006A
:1035400095FFFCCF8093C600F6CF8091C00085FF29
:10355000FCCF8AE08093C600F7018191882339F07F
:103560009091C00095FFFCCF8093C600F6CF80916C
:10357000C00085FFFCCF8AE08093C6008BE1FE018E
:10358000EC5BFF4FDE01959601900D928A95E1F775
:1035900024968EAD9FAD24979CA38BA382E094E0EC
:1035A0009AA389A320E030E0AE014F5D5F4FB401E4
:1035B000C801FDDECE01819671DECE01805C9F4F99
:1035C0006DDEE1962EAD3FADE1970FB6F8943EBFAC
:1035D0000FBE2DBF39CF80E001900020E9F7319771
:1035E000EC19FD095DCF8981882309F478C08E32FA
:1035F00009F42ACFF80182898E3209F425CF23FD00
:1036000023CF81E0303109F080E0F801848381111B
:1036100008C08985873409F017CF8A858E3709F469
:1036200013CFF101808191818130910569F0823061
:10363000910581F1892B09F007CFBE016F5F7F4FA4
:10364000C3019FDEF60110C0AF96EEADFFADAF97A0
:1036500080819181019691838083F6CE9091C00004
:1036600095FFFCCF8093C60081918111F7CFF301C4
:103670008191882339F09091C00095FFFCCF809311
:10368000C600F6CF8091C00085FFFCCF8AE0809312
:10369000C600DACEBE016F5F7F4FC30172DE4114F8
:1036A000510439F0B301C2010F942608892B79F433
:1036B00016C0AD96FFADAD972F2F30E0AF96EEADB3
:1036C000FFADAF97808191812817390741F0AD9602
:1036D000FFADAD97FF5FAD96FFAFAD97B5CEE3966B
:1036E0002EAD3FADE3970FB6F8943EBF0FBE2DBF92
:1036F000CA58DF4F0FB6F894DEBF0FBECDBFDF91C3
:10370000CF911F910F91FF90EF90DF90CF90BF90DE
:10371000AF909F908F907F906F905F904F903F9071
:103720002F900895EF92FF920F931F93CF93DF9303
:10373000CDB7DEB76F970FB6F894DEBF0FBECDBF23
:103740008C01FC01E857FD4F118210827C0183E35C
:10375000E80EF11C40E050E0BA01C7010E944C9411
:103760008BE1F701DE01159601900D928A95E1F744
:10377000F80181A992A99C838B8382E094E09A83CB
:10378000898320E030E0AE014F5F5F4F69E174E074
:10379000C8010DDECE01019681DD6F960FB6F8945B
:1037A000DEBF0FBECDBFDF91CF911F910F91FF9074
:1037B000EF9008952BE1FB013496DC011496019003
:1037C0000D922A95E1F7FB0122813381FC013383BD
:1037D00022830895EF92FF920F931F93CF93DF936D
:1037E000EC011B828EA9882321F0CE01C3960E9492
:1037F0002F957E0189E5E81A8EEFF80A45E360E02F
:10380000C7010E94AC8F81111FC0E3E5F0E18491F4
:10381000882341F09091C00095FFFCCF8093C600B3
:103820003196F5CFE8E7F3E08491882341F0909159
:10383000C00095FFFCCF8093C6003196F5CF8091F4
:10384000C00085FFFCCF76C08E0104551E4F41E0BD
:10385000B701C8010E94309D811126C040E0B70128
:10386000C8010E94309D81111FC0E9E5F0E18491FB
:10387000882341F09091C00095FFFCCF8093C60053
:103880003196F5CFE5E6F3E08491882341F09091FD
:10389000C00095FFFCCF8093C6003196F5CF809194
:1038A000C00085FFFCCF46C0B801CE01C3960E9480
:1038B000399281111FC0E9E5F0E18491882341F03C
:1038C0009091C00095FFFCCF8093C6003196F5CF54
:1038D000E5E5F3E08491882341F09091C00095FFE5
:1038E000FCCF8093C6003196F5CF8091C00085FF54
:1038F000FCCF20C081E08B83E3E5F0E18491882355
:1039000041F09091C00095FFFCCF8093C6003196A6
:10391000F5CFEAE4F3E08491882341F09091C00070
:1039200095FFFCCF8093C6003196F5CF8091C00003
:1039300085FFFCCF8AE08093C6008E01015D1F4F9A
:10394000B801CE01805B9F4F35DFC25BDF4F19832B
:103950000883DF91CF911F910F91FF90EF90089511
:10396000FC01128213820895FC012381222311F0AD
:1039700021E022830895FC01228121111282089501
:10398000AF92BF92CF92DF92EF92FF920F931F936D
:10399000CF93DF931F92CDB7DEB78C018FE2FB018F
:1039A00081935F01D12C41E07801FBE5EF1AFEEF36
:1039B000FF0A8FE1C82E2D2D30E0F7018081918123
:1039C00028173907D8F4C29EC001C39E900D112458
:1039D0008D589F4FB501800F911F49830E94E09140
:1039E000C50149815C010196F5012081222321F066
:1039F0004D3810F44F5FF6CFD394DDCF47FD11C0A3
:103A0000B501C80182539E4F0F90DF91CF911F9156
:103A10000F91FF90EF90DF90CF90BF90AF900C94FC
:103A2000E091F50110820F90DF91CF911F910F91DE
:103A3000FF90EF90DF90CF90BF90AF9008953F92AE
:103A40004F925F926F927F928F929F92AF92BF92AE
:103A5000CF92DF92EF92FF920F931F93CF93DF935A
:103A6000CDB7DEB7AC970FB6F894DEBF0FBECDBFB3
:103A70007C015B01FC018381882309F4EDC0C7014F
:103A800082539E4F0E942F95F7011282CE0101961C
:103A90006C01FADB27019EE4490E511CC7018F9689
:103AA000F20191838083F50180818F3209F077C024
:103AB0006FE270E0C5010F9444088C010F5F1F4F47
:103AC0009AE0392E0115110509F46FC06FE270E01C
:103AD000C8010F9444084C01009709F467C0081707
:103AE000190708F063C03C01601A710AA301B8010C
:103AF000CE0180960F946D08E0E2F0E0EC0FFD1F20
:103B0000E60DF71D1082FE01B0968191882339F0F1
:103B10009091C00095FFFCCF8093C600F6CF8091B6
:103B2000C00085FFFCCF3092C600F2016081718138
:103B30006115710519F06C5F7F4F02C060E070E0A5
:103B400021E0AE01405E5F4FCE0105960E942697B0
:103B500081111EC0E6E2F2E08491882341F0909149
:103B6000C00095FFFCCF8093C6003196F5CFFE01D3
:103B7000B0968191882339F09091C00095FFFCCFD9
:103B80008093C600F6CF8091C00085FFFCCF5FC058
:103B9000F201D182C08284010F5F1F4F93CFC70112
:103BA000805B9F4FF201918380838501F2018081C8
:103BB0009181009711F0049602C080E090E0B80176
:103BC0000E94FC97811103C0E0E0F2E02EC0E8E122
:103BD000F2E08491882341F09091C00095FFFCCFE2
:103BE0008093C6003196F5CFF8018191882339F092
:103BF0009091C00095FFFCCF8093C600F6CF8091D6
:103C0000C00085FFFCCF8AE08093C600F701ED5726
:103C1000FD4F10821182128213821CC09091C0004D
:103C200095FFFCCF8093C600319684918111F6CF29
:103C3000F8018191882339F09091C00095FFFCCF65
:103C40008093C600F6CF8091C00085FFFCCF8EE246
:103C50008093C600C60122DBAC960FB6F894DEBF97
:103C60000FBECDBFDF91CF911F910F91FF90EF90CD
:103C7000DF90CF90BF90AF909F908F907F906F908C
:103C80005F904F903F900895CF93DF93EC018B812D
:103C9000811103C0EEEDF1E039C0EEEEF1E0849168
:103CA000882341F09091C00095FFFCCF8093C6001F
:103CB0003196F5CFFE01ED57FD4F40815181628174
:103CC00073812AE030E08AEA94E00E94DA30809141
:103CD000C00085FFFCCF8FE28093C600C558DD4F42
:103CE000488159816A817B812AE030E08AEA94E048
:103CF0000E94DA308091C00085FFFCCF0EC0909109
:103D0000C00095FFFCCF8093C6003196849181114D
:103D1000F6CF8091C00085FFFCCF8AE08093C6007B
:103D2000DF91CF910895AF92BF92CF92DF92EF9241
:103D3000FF920F931F93CF93DF935C01EB01FB0185
:103D400001900020E9F78F0101501109061B170BA4
:103D50006C01F2E3CF1AFEEFDF0AF60110826EE487
:103D600070E0CE010F9444087C01009729F4F8011B
:103D70003197EC0FFD1F0DC060E270E00F94440816
:103D8000EC0121966AE270E0C7010F944408FC013F
:103D900031978DE081838AE082831382BE01C50161
:103DA00086539E4F0E94D999F6018081882309F19C
:103DB000E9E5F0E18491882341F09091C00095FFFE
:103DC000FCCF8093C6003196F5CFE8ECF1E084910A
:103DD000882341F09091C00095FFFCCF8093C600EE
:103DE0003196F5CF8091C00085FFFCCF8AE08093AB
:103DF000C600DF91CF911F910F91FF90EF90DF9060
:103E0000CF90BF90AF9008952F923F924F925F92C4
:103E10006F927F928F929F92AF92BF92CF92DF92DA
:103E2000EF92FF920F931F93CF93DF93CDB7DEB73F
:103E3000CC5BD1090FB6F894DEBF0FBECDBF8C01AD
:103E400089579D4F5C01611112C0FC01808188235C
:103E500009F4B1C03897C080D180E280F3800E941D
:103E60006EFDC616D706E806F90608F4A4C0F501EB
:103E70001082F8018381811107C0C801ABDCF80111
:103E80008381882309F497C0F80186A58F9385A5BF
:103E90008F938FEB91E09F938F937E01F3EBEF0E67
:103EA000F11CFF92EF920F947C080F900F900F90EF
:103EB0000F900F900F90B12CF70101900020E9F7BF
:103EC0003197EE19FF09BE1684F46701CB0CD11CA3
:103ED000B7FCDA94F6018081992787FD90950F94BD
:103EE000C707F6018083B394E7CF4801F3E38F0E51
:103EF000911C40E050E0BA01C4010E944C94512C46
:103F00006E0183E9C80ED11C28EB622E21E0722ECF
:103F1000FE0131965F0140E050E0B601C4010E940D
:103F200095931816E4F5412CF60101900020E9F76D
:103F30003197EC19FD094E1674F41601240C311C4E
:103F400047FC3A94F101808190E00F94C707F1019A
:103F500080834394E9CFF60181858E37E1F245E015
:103F600050E0B701C6010F945F08892BA1F6FF92BC
:103F7000EF927F926F92BF92AF920F947C08C5012F
:103F80000E94143284EB91E00E94DD320F900F907A
:103F90000F900F900F900F9055245394BCCF511059
:103FA00004C08FEF9FEFF80104C0F80185A596A526
:103FB000019696A785A7C454DF4F0FB6F894DEBFCD
:103FC0000FBECDBFDF91CF911F910F91FF90EF906A
:103FD000DF90CF90BF90AF909F908F907F906F9029
:103FE0005F904F903F902F9008950F931F93CF9322
:103FF000DF93EC018C0102531E4FC8010E94E5942F
:10400000C8010E942F9519821882DF91CF911F91CC
:104010000F910895CF92DF92EF92FF920F931F932B
:10402000CF93DF93CDB7DEB76F970FB6F894DEBFAF
:104030000FBECDBF8C016A017C018EE4E80EF11C3D
:10404000C801805B9F4FF70191838083E65CFD4F41
:1040500022E030E03183208332967183608340E038
:1040600050E0BA0104960E944C94F701808191813E
:104070002BE1FC013496DE01159601900D922A95F4
:10408000E1F7FC01828193819C838B8382E094E041
:104090009A8389839601AE014F5F5F4F69E174E0B7
:1040A000C80185D9CE010196F9D86F960FB6F8945C
:1040B000DEBF0FBECDBFDF91CF911F910F91FF905B
:1040C000EF90DF90CF9008952F923F924F925F92A2
:1040D0006F927F928F929F92AF92BF92CF92DF9218
:1040E000EF92FF920F931F93CF93DF93CDB7DEB77D
:1040F000AC970FB6F894DEBF0FBECDBF8C016B013D
:10410000342EFC018381882309F4CDC2EF52FE4F87
:104110008081882309F4FAC0222319F0E3E5F0E155
:10412000CDC07801F7E1EF1AFEEFFF0AF7018081B9
:10413000811103C0E3E5F0E135C0E9E5F0E18491E8
:10414000882341F09091C00095FFFCCF8093C6007A
:104150003196F5CFE7E0F3E08491882341F0909128
:10416000C00095FFFCCF8093C6003196F5CF4AE0A2
:1041700050E061E070E08AEA94E00E94AE30809105
:10418000C00085FFFCCF8AE08093C6008EEF92E0EE
:104190000E94BF5188C29091C00095FFFCCF8093D0
:1041A000C600319684918111F6CFE5EEF2E084915C
:1041B000882341F09091C00095FFFCCF8093C6000A
:1041C0003196F5CFF6018191882339F09091C000A6
:1041D00095FFFCCF8093C600F6CFEAEDF2E0849124
:1041E000882341F09091C00095FFFCCF8093C600DA
:1041F0003196F5CFF70180814DE8B42EB801B89E15
:10420000600D711D112462517E4FC801B9DBF701A9
:104210008081F801B89EE00DF11D1124E251FE4F9E
:104220008191882339F09091C00095FFFCCF809355
:10423000C600F6CFE4EDF2E08491882341F090913E
:10424000C00095FFFCCF8093C6003196F5CF580192
:10425000FDE7AF1AFDEFBF0AF50140815181628190
:1042600073812AE030E08AEA94E00E94DA3080919B
:10427000C00085FFFCCF8AE08093C600F701208153
:10428000F80184E0289FE00DF11D1124AF01465193
:104290005E4FF50180819181A281B381FA01808313
:1042A0009183A283B3832F5FF701208329C090916C
:1042B000C00095FFFCCF8093C60031968491811198
:1042C000F6CFE3ECF2E08491882341F09091C000B6
:1042D00095FFFCCF8093C6003196F5CFF601819112
:1042E000882339F09091C00095FFFCCF8093C600E1
:1042F000F6CF8091C00085FFFCCF8AE08093C60096
:10430000C80182539E4F0E942F9530C0F801E7519B
:10431000FE4F1082E3E5F0E18491882341F0909113
:10432000C00095FFFCCF8093C6003196F5CFE2EB3D
:10433000F2E08491882341F09091C00095FFFCCF7A
:104340008093C6003196F5CFF6018191882339F02C
:104350009091C00095FFFCCF8093C600F6CF80916E
:10436000C00085FFFCCF8AE08093C600F80112826E
:10437000CE0101965C010E94441928019EE4490E79
:10438000511CC8018F96F20191838083F6018081D0
:104390008F3209F077C07601FFEFEF1AFF0A3AE09B
:1043A000232EE114F10409F473C06FE270E0C70139
:1043B0000F9444084C01009709F46BC0E816F90605
:1043C00008F067C03C016E187F08A301B701CE0159
:1043D00080960F946D08E0E2F0E0EC0FFD1FE60D13
:1043E000F71D1082FE01B0968191882339F09091DB
:1043F000C00095FFFCCF8093C600F6CF8091C0002F
:1044000085FFFCCF2092C600F201608171816115A9
:10441000710519F06C5F7F4F02C060E070E021E031
:10442000AE01405E5F4FCE0105960E942697811136
:1044300021C0EEE9F2E08491882341F09091C00020
:1044400095FFFCCF8093C6003196F5CFFE01B09664
:104450008191882339F09091C00095FFFCCF809323
:10446000C600F6CF8091C00085FFFCCF8EE280931E
:10447000C60016C1F201B182A0827401FFEFEF1AEB
:10448000FF0A8FCFC801805B9F4FF2019183808329
:104490007601C80182539E4F4C01F2016081718107
:1044A000332009F4A3C06115710519F06C5F7F4FCB
:1044B00002C060E070E021E0A701C4010E942697DD
:1044C000811103C0E6E6F2E075C0980125583D4F22
:1044D000F40181899289A389B489F9018083918348
:1044E000A283B383E0E9F2E08491882341F09091C4
:1044F000C00095FFFCCF8093C6003196F5CFF70141
:104500008191882339F09091C00095FFFCCF809372
:10451000C600F6CFE8E8F2E08491882341F090915C
:10452000C00095FFFCCF8093C6003196F5CFF9010E
:1045300040815181628173812AE030E08AEA94E00F
:104540000E94DA308091C00085FFFCCF8AE0809322
:10455000C600F801ED57FD4F1082118212821382BE
:10456000EAE7F2E08491882341F09091C00095FF42
:10457000FCCF8093C6003196F5CF8091C00085FFB7
:10458000FCCF8AE08093C600A70160E070E0C8011C
:1045900041DDF8018289882319F0C801429601C0E3
:1045A000C70160E07BC09091C00095FFFCCF809375
:1045B000C600319684918111F6CFF701819188234D
:1045C00039F09091C00095FFFCCF8093C600F6CFE4
:1045D000E3E6F2E08491882309F462C09091C00080
:1045E00095FFFCCF8093C6003196F4CF611571051D
:1045F00019F06C5F7F4F02C060E070E026E5A70114
:10460000C4010E942697811125C0EFE4F2E0849155
:10461000882341F09091C00095FFFCCF8093C600A5
:104620003196F5CFF7018191882339F09091C00040
:1046300095FFFCCF8093C600F6CFECE4F2E08491C6
:10464000882371F19091C00095FFFCCF8093C60044
:104650003196F5CF81E0F8018083EAE3F2E08491BE
:10466000882341F09091C00095FFFCCF8093C60055
:104670003196F5CFF6018191882339F09091C000F1
:1046800095FFFCCF8093C600F6CF8091C00085FFD8
:10469000FCCF8AE08093C60060E0C7010E948AC90F
:1046A000C5010E944E19AC960FB6F894DEBF0FBE3E
:1046B000CDBFDF91CF911F910F91FF90EF90DF90D1
:1046C000CF90BF90AF909F908F907F906F905F90B2
:1046D0004F903F902F90089521E0FC01218340E00E
:1046E000F3CCCF92DF92EF92FF920F931F93CF9371
:1046F000DF93CDB7DEB76F970FB6F894DEBF0FBE6E
:10470000CDBF8C016C012EE4C20ED11C805B9F4F8B
:10471000F60191838083E65CFD4F21E030E0318338
:1047200020837801F6E7EF1AFDEFFF0AF701118207
:10473000108240E050E0BA0104960E944C94F601C9
:10474000808191812BE1FC013496DE011596019068
:104750000D922A95E1F7FC01828193819C838B83E2
:1047600082E094E09A83898320E030E0AE014F5FDD
:104770005F4F69E174E0C8010E94D719CE0101962C
:104780000E944E19F701808191816F960FB6F894BF
:10479000DEBF0FBECDBFDF91CF911F910F91FF9074
:1047A000EF90DF90CF900895AF92BF92CF92DF92BB
:1047B000EF92FF920F931F93CF93DF93CDB7DEB7A6
:1047C0006F970FB6F894DEBF0FBECDBF8C017B0193
:1047D000CE0101960E944419F801E95AFF4F8081E9
:1047E0006801811104C02FE2C20ED11C03C080E514
:1047F000C80ED11C21E0A701B6016C5F7F4FCE012E
:1048000005960E94269781112DC0E3E5F0E1849181
:10481000882341F09091C00095FFFCCF8093C600A3
:104820003196F5CFEEE9F1E08491882341F0909143
:10483000C00095FFFCCF8093C6003196F5CFF701FD
:104840008191882339F09091C00095FFFCCF80932F
:10485000C600F6CF8091C00085FFFCCF8AE0809330
:10486000C60036C0F801EB55FE4F808191818A3039
:10487000910530F59C012F5F3F4F318320832FE15D
:10488000289F7001299FF00C11242FE6E20EF11CE5
:10489000E00EF11E5C01B701C7014F960E94DA1BC2
:1048A00081E0A81AB1082FE1E21AF1088FEFA816EB
:1048B000B80689F7B601C80181599F4F0E94DA1BDB
:1048C000BE016F5F7F4FC801805B9F4F0E94DA1B64
:1048D000CE0101960E944E196F960FB6F894DEBF76
:1048E0000FBECDBFDF91CF911F910F91FF90EF9041
:1048F000DF90CF90BF90AF900895EF92FF920F930B
:104900001F93CF93DF93EC01CB55DE4F2881398184
:1049100021153105F9F021503109398328838C01A3
:1049200001591F4FB801805B9F4F0E94DA1BC801DD
:1049300000E010E07C012FE1E20EF11C28813981BA
:104940000217130738F40F5F1F4FB7010E94DA1BDD
:10495000C701F0CFDF91CF911F910F91FF90EF90A2
:104960000895EF92FF920F931F93CF93DF93EC0183
:104970000E94AFA68E0107511E4FF80180819E0153
:1049800022533E4F79018823A1F1C9010E942F953E
:10499000F801808181508083BE01FDE88F9F600D0A
:1049A000711D112462517E4F21E041E0CE018CDB6C
:1049B000F8018081FE0124E0829FE00DF11D1124A9
:1049C000E651FE4F4081518162817381FE01ED57B6
:1049D000FD4F4083518362837383C7010E944C94CF
:1049E000CE01DF91CF911F910F91FF90EF900C942A
:1049F000B41CC9010E942F951A8282E991E00E949D
:104A0000DD328091BA0E882349F11092BA0E0091DE
:104A1000540510E0E801CC0FDD1FC452DD4E688163
:104A20007981882777FD8095982F0F948A012091AE
:104A30003B0230913C0240913D0250913E020F9466
:104A4000EB0218165CF419821882C801DF91CF912D
:104A50001F910F91FF90EF900C943BACDF91CF91A1
:104A60001F910F91FF90EF900895AF92BF92DF9248
:104A7000EF92FF920F931F93CF93DF931F92CDB7C7
:104A8000DEB78C015B01460F8AE0D82E4A1509F487
:104A90003BC07501F50161915F01F8018081918151
:104AA00049830F94A00AF801808191810F94980A9C
:104AB000F70190814981891701F1E3E5F0E18491E3
:104AC000882341F09091C00095FFFCCF8093C600F1
:104AD0003196F5CFE1E4F6E08491882341F090919E
:104AE000C00095FFFCCF8093C6003196F5CF809132
:104AF000C00085FFFCCFD092C600F8018081918173
:104B0000019691838083C2CF0F90DF91CF911F9147
:104B10000F91FF90EF90DF90BF90AF900895EF92CC
:104B2000FF920F931F93CF93DF931F92CDB7DEB702
:104B30008C017B01460FF8018081918149830F949C
:104B4000980AF70181937F01F80180819181019694
:104B50009183808349814E11EECF0F90DF91CF91E9
:104B60001F910F91FF90EF900895AF92BF92CF9257
:104B7000DF92EF92FF920F931F93CF93DF93CDB706
:104B8000DEB7A1970FB6F894DEBF0FBECDBF1D8A6A
:104B90001E8A1F8A188E80E390E3A0E3B0E0898B21
:104BA0009A8BAB8BBC8B84E690E09E8F8D8F44E01C
:104BB000BE016F5E7F4FCE014D9657DF40E16BEF38
:104BC0007EE0CE014D9651DF40E16BE07FE0CE010B
:104BD0004D964BDF40E16BEE7EE0CE014D9645DF1A
:104BE00044E063EE7EE0CE014D963FDF44E06FEDA2
:104BF0007EE0CE014D9639DF44E06BED7EE0CE01E4
:104C00004D9633DF44E067EE7EE0CE014D962DDF1A
:104C100044E06BEC7EE0CE014D9627DF44E06BE193
:104C20007FE0CE014D9621DF44E067ED7EE0CE01CE
:104C30004D961BDF44E063ED7EE0CE014D9615DF1F
:104C400044E06FEC7EE0CE014D960FDF4CE061E674
:104C500075E0CE014D9609DF83E089A388A31F8EFE
:104C600041E0BE01615E7F4FCE014D96FEDE41E028
:104C7000BE016F5D7F4FCE014D96F7DE41E0BE0174
:104C8000605E7F4FCE014D96F0DE1D8A1E8A1F8A20
:104C9000188E10E099A188A1212F30E0989FC001C3
:104CA000112444E02817390744F4BE016B5E7F4F9E
:104CB000CE014D96DADE1F5FEDCF6EE072E0CE01E1
:104CC0004D96D3DE1D8A1E8A1F8A188E07E010E0DB
:104CD0000150110941F044E0BE016B5E7F4FCE01EF
:104CE0004D96C3DEF5CF42E06EE675E1CE014D96FE
:104CF000BCDE42E06CE675E1CE014D96B6DE42E0E8
:104D00006AE675E1CE014D96B0DE42E068E675E1F7
:104D1000CE014D96AADE42E066E675E1CE014D96E3
:104D2000A4DE42E064E675E1CE014D969EDE00E031
:104D300010E0C12C20E8D22E2BE3E22E25E4F22E47
:104D400001151105C9F444E061E872E0CE014D9609
:104D50008CDE44E06DE772E0CE014D9686DE44E0E5
:104D600069E772E0CE014D9680DE44E065E772E0CF
:104D7000CE014D967ADE1EC0CD8ADE8AEF8AF88E8D
:104D800044E0BE016B5E7F4FCE014D966EDE1D8A04
:104D90001E8A1F8A188E94E0A92EB12C81E0A81AD1
:104DA000B10841F044E0BE016B5E7F4FCE014D96ED
:104DB0005CDEF4CF0F5F1F4F0430110509F0C0CF48
:104DC00042E06AE072E0CE014D964FDE80E090E86E
:104DD000ABE3B5E48D879E87AF87B88B89879A87C9
:104DE000AB87BC878D839E83AF83B88744E0BE01C9
:104DF000635F7F4FCE014D9638DE44E0BE01675FB2
:104E00007F4FCE014D9631DE44E0BE016B5F7F4F98
:104E1000CE014D962ADE80E290E09C8F8B8F42E09F
:104E2000BE01655E7F4FCE014D961FDE80E090E0B3
:104E3000A0E8BFE38D8B9E8BAF8BB88F44E0BE01A3
:104E40006B5E7F4FCE014D9610DE41E06DE675E062
:104E5000CE014D960ADE00E010E00115110561F467
:104E60008091290290912A02A0912B02B0912C02EC
:104E70008D8B9E8BAF8BB88F44E0BE016B5E7F4FF6
:104E8000CE014D96F2DD0F5F1F4F0430110529F75B
:104E900086E592E3A1E3B0E089839A83AB83BC8388
:104EA00084E690E09A8F898F44E0BE016F5F7F4F68
:104EB000CE014996DADDE3E5F0E18491882341F003
:104EC0009091C00095FFFCCF8093C6003196F5CF3E
:104ED0004D8D5E8D662757FD6095762F8FE296E0AB
:104EE0000E940332E7E2F6E08491882341F090913A
:104EF000C00095FFFCCF8093C6003196F5CF80911E
:104F0000C00085FFFCCF8AE08093C600A1960FB653
:104F1000F894DEBF0FBECDBFDF91CF911F910F91EF
:104F2000FF90EF90DF90CF90BF90AF900895AF9239
:104F3000BF92DF92EF92FF920F931F93CF93DF9375
:104F4000CDB7DEB7E0970FB6F894DEBF0FBECDBF8A
:104F500080E1EAEDF2E0DE01919601900D928A95F2
:104F6000E1F780E1EAEEF2E0DE01519601900D9268
:104F70008A95E1F780E1EAEFF2E0DE011196019017
:104F80000D928A95E1F77E0181E2E80EF11C0BEFAC
:104F90001EE0BE016F5E7F4F4BE05FE09E012F5F22
:104FA0003F4FEBEEAE2EEEE0BE2ED12CF7018191FD
:104FB0009191A191B1917F01F80181939193A19376
:104FC000B1938F01FB0181919191A191B191BF01A9
:104FD000FA0181939193A193B193AF01F90181916A
:104FE0009191A191B1919F01F50181939193A19329
:104FF000B1935F01D394F4E0DF12D8CF0E94FA7C22
:1050000080E090E4ACE1B4E48093E30E9093E40E8E
:10501000A093E50EB093E60E40E050E46CE975E431
:105020004093DF0E5093E00E6093E10E7093E20E1A
:105030008093DB0E9093DC0EA093DD0EB093DE0E1A
:105040001092E70E1092E80E1092E90E1092EA0EFE
:1050500080E29EE4A0E0B0E080931B0F90931C0FD1
:10506000A0931D0FB0931E0F1092CB0E1092CC0E7A
:105070001092CD0E1092CE0E80E090E0A0E0B1E450
:105080008093D70E9093D80EA093D90EB093DA0EDA
:105090008DEC9CECACECBEE38093D30E9093D40EDD
:1050A000A093D50EB093D60E80E090E0A0EAB0E4D5
:1050B0008093CF0E9093D00EA093D10EB093D20ECA
:1050C0001092690510926A0510926B0510926C059A
:1050D000109265051092660510926705109268059A
:1050E000109261051092620510926305109264059A
:1050F00080E090E0A0E8BFEB80930E0290930F0257
:10510000A0931002B09311028CED90E090936F1574
:1051100080936E158CE390E090936D1580936C15E1
:1051200010926B1510926A1580EF90E090936915BC
:105130008093681588E790E09093671580936615D3
:10514000109265151092641587ED93EAA8EDB1E40D
:105150008093810290938202A0938302B093840291
:1051600061EE7AE784E090E40E9435B660937D02B8
:1051700070937E0280937F029093800263EC75E7C8
:1051800081EB92E40E9441B66093790270937A02B7
:1051900080937B0290937C0280E090E0A8ECB2E4E4
:1051A0008093750290937602A0937702B093780271
:1051B00084E190E090930B0280930A020E94B6A8CB
:1051C00010926D0580E090E0A0E4B0E480932902A5
:1051D00090932A02A0932B02B0932C020E945F644A
:1051E000E3E5F0E18491882341F09091C00095FFC0
:1051F000FCCF8093C6003196F5CFE0EEF5E08491C8
:10520000882341F09091C00095FFFCCF8093C600A9
:105210003196F5CF8091C00085FFFCCF8AE0809366
:10522000C600E0960FB6F894DEBF0FBECDBFDF918B
:10523000CF911F910F91FF90EF90DF90BF90AF90B3
:105240000895CF93C82F882389F14091FB0E509188
:10525000FC0E6091FD0E7091FE0E88EC95E00E94B0
:10526000E1314091FF0E5091000F6091010F70915C
:10527000020F85EC95E00E94E1314091030F5091BF
:10528000040F6091050F7091060F82EC95E00E946B
:10529000E1314091070F5091080F6091090F709113
:1052A0000A0F8FEB95E00E94E1312FC0E3E5F0E1BA
:1052B0008491882341F09091C00095FFFCCF8093AA
:1052C000C6003196F5CFE0EDF5E08491882341F0FA
:1052D0009091C00095FFFCCF8093C6003196F5CF2A
:1052E0008091C00085FFFCCF8AE08093C600E3E593
:1052F000F0E18491882309F4A8CF9091C00095FF34
:10530000FCCF8093C6003196F4CF8091C00085FF1A
:10531000FCCF8AE08093C600CC2389F140910B0F2B
:1053200050910C0F60910D0F70910E0F8CE995E06C
:105330000E94E13140910F0F5091100F6091110FB9
:105340007091120F89E995E00E94E1314091130FAD
:105350005091140F6091150F7091160F86E995E02A
:105360000E94E1314091170F5091180F6091190F71
:1053700070911A0F83E995E00E94E1312FC0E3E5B7
:10538000F0E18491882341F09091C00095FFFCCF1B
:105390008093C6003196F5CFE5EAF5E08491882345
:1053A00041F09091C00095FFFCCF8093C6003196EC
:1053B000F5CF8091C00085FFFCCF8AE08093C600C6
:1053C000E3E5F0E18491882309F4A8CF9091C0002F
:1053D00095FFFCCF8093C6003196F4CF8091C0003A
:1053E00085FFFCCF8AE08093C600CC2371F1409109
:1053F000EB0E5091EC0E6091ED0E7091EE0E8CE67E
:1054000095E00E9403324091EF0E5091F00E6091B2
:10541000F10E7091F20E89E695E0F5D74091F30E0A
:105420005091F40E6091F50E7091F60E86E695E0BF
:10543000EAD74091F70E5091F80E6091F90E7091F5
:10544000FA0E83E695E0DFD72FC0E3E5F0E1849123
:10545000882341F09091C00095FFFCCF8093C60057
:105460003196F5CFE5E7F5E08491882341F09091FE
:10547000C00095FFFCCF8093C6003196F5CF809198
:10548000C00085FFFCCF8AE08093C600E3E5F0E131
:105490008491882309F4ABCF9091C00095FFFCCF95
:1054A0008093C6003196F4CF8091C00085FFFCCF79
:1054B0008AE08093C600CC2311F14091E30E509115
:1054C000E40E6091E50E7091E60E88E295E079D7E2
:1054D0004091DF0E5091E00E6091E10E7091E20E6E
:1054E00085E295E06ED74091DB0E5091DC0E609125
:1054F000DD0E7091DE0E82E295E063D72FC0E3E50A
:10550000F0E18491882341F09091C00095FFFCCF99
:105510008093C6003196F5CFE1E3F5E084918823CE
:1055200041F09091C00095FFFCCF8093C60031966A
:10553000F5CF8091C00085FFFCCF8AE08093C60044
:10554000E3E5F0E18491882309F4B7CF9091C0009E
:1055500095FFFCCF8093C6003196F4CF8091C000B8
:1055600085FFFCCF8AE08093C600CC2309F443C0BA
:105570004091E70E5091E80E6091E90E7091EA0EAD
:1055800086E694E01ED74091CB0E5091CC0E6091F0
:10559000CD0E7091CE0E83E694E013D740911B0F91
:1055A00050911C0F60911D0F70911E0F80E694E0CA
:1055B0002AD74091D70E5091D80E6091D90E709194
:1055C000DA0E8DE594E0FDD64091D30E5091D40EC5
:1055D0006091D50E7091D60E8AE594E0F2D6409196
:1055E000CF0E5091D00E6091D10E7091D20E87E502
:1055F00094E0E7D62FC0E3E5F0E18491882341F001
:105600009091C00095FFFCCF8093C6003196F5CFF6
:10561000EFE6F4E08491882341F09091C00095FF7B
:10562000FCCF8093C6003196F5CF8091C00085FFF6
:10563000FCCF8AE08093C600E3E5F0E18491882303
:1056400009F496CF9091C00095FFFCCF8093C600DF
:105650003196F4CF8091C00085FFFCCF8AE0809323
:10566000C600CC2311F14091610550916205609113
:105670006305709164058CE394E0A3D640916505C1
:1056800050916605609167057091680589E394E023
:1056900098D64091690550916A0560916B057091AB
:1056A0006C0586E394E08DD62FC0E3E5F0E18491AC
:1056B000882341F09091C00095FFFCCF8093C600F5
:1056C0003196F5CFE5E4F4E08491882341F09091A0
:1056D000C00095FFFCCF8093C6003196F5CF809136
:1056E000C00085FFFCCF8AE08093C600E3E5F0E1CF
:1056F0008491882309F4B7CF9091C00095FFFCCF27
:105700008093C6003196F4CF8091C00085FFFCCF16
:105710008AE08093C600CC2311F140916E15509120
:105720006F15662757FD6095762F8EE094E06BD657
:1057300040916C1550916D15662757FD6095762F39
:105740008BE094E060D640916A1550916B15662706
:1057500057FD6095762F88E094E055D62FC0E3E59D
:10576000F0E18491882341F09091C00095FFFCCF37
:105770008093C6003196F5CFEAE1F4E08491882366
:1057800041F09091C00095FFFCCF8093C600319608
:10579000F5CF8091C00085FFFCCF8AE08093C600E2
:1057A000E3E5F0E18491882309F4B7CF9091C0003C
:1057B00095FFFCCF8093C6003196F4CF8091C00056
:1057C00085FFFCCF8AE08093C600CC2311F1409185
:1057D000681550916915662757FD6095762F8CEFF7
:1057E00093E011D64091661550916715662757FDD5
:1057F0006095762F89EF93E006D64091641550911D
:105800006515662757FD6095762F86EF93E0FBD5EB
:105810000DC0E3E5F0E184918823C9F29091C000C6
:1058200095FFFCCF8093C6003196F5CF8091C000E4
:1058300085FFFCCF8AE08093C600CC2309F43CC0EE
:1058400040918102509182026091830270918402A2
:105850008FED93E0B6D560917D0270917E028091CC
:105860007F02909180020E943BB6AB01BC018CED9F
:1058700093E0A7D56091790270917A0280917B02C2
:1058800090917C020E9447B6AB01BC0189ED93E088
:1058900098D540917502509176026091770270918F
:1058A000780286ED93E08DD560910A0270910B022B
:1058B00083ED93E075D52FC0E3E5F0E18491882373
:1058C00041F09091C00095FFFCCF8093C6003196C7
:1058D000F5CFE8EEF3E08491882341F09091C00089
:1058E00095FFFCCF8093C6003196F5CF8091C00024
:1058F00085FFFCCF8AE08093C600E3E5F0E1849168
:10590000882309F49DCF9091C00095FFFCCF809330
:10591000C6003196F4CF8091C00085FFFCCF8AE0AD
:105920008093C600CC2361F04091290250912A0255
:1059300060912B0270912C028DEA93E042D545C014
:10594000E3E5F0E18491882341F09091C00095FF58
:10595000FCCF8093C6003196F5CFE0ECF3E0849164
:10596000882341F09091C00095FFFCCF8093C60042
:105970003196F5CF80916D05811103C0E6EBF3E020
:105980000CC08091C00085FFFCCF0EC09091C0007C
:1059900095FFFCCF8093C600319684918111F6CF9C
:1059A0008091C00085FFFCCF8AE08093C600E3E5CC
:1059B000F0E18491882309F4B7CF9091C00095FF5E
:1059C000FCCF8093C6003196F4CF8091C00085FF54
:1059D000FCCF8AE08093C60080916D05811123C0C1
:1059E000C1110DC0E3E5F0E107C09091C00095FF43
:1059F000FCCF8093C600319684918111F6CFE3EA03
:105A0000F3E007C09091C00095FFFCCF8093C600E3
:105A1000319684918111F6CF8091C00085FFFCCF33
:105A20008AE08093C600CC2361F040910E02509131
:105A30000F02609110027091110285E893E0C1D4C9
:105A40002EC0E3E5F0E18491882341F09091C000FD
:105A500095FFFCCF8093C6003196F5CFEEE8F3E0DA
:105A60008491882341F09091C00095FFFCCF8093F2
:105A7000C6003196F5CF8091C00085FFFCCF8AE04B
:105A80008093C600E3E5F0E18491882371F2909160
:105A9000C00095FFFCCF8093C6003196F5CF809172
:105AA000C00085FFFCCF8AE08093C600CF910895A7
:105AB000CF92DF92EF92FF920F931F93CF93DF93DA
:105AC000CDB7DEB76B970FB6F894DEBF0FBECDBF74
:105AD00084E690E0988F8F8B86E592E3A1E3B0E0B7
